:060000000A128A11132907
:10000800F000030EF1000B1810200B191820710EC8
:100018008300F00E700E090003138312061E850A72
:10002800861F85030B10080064308100A0030B11A4
:020038000800BE
:100200008A010A1482073F3406345B344F34663463
:100210006D347D3407347F346F3477347C34393433
:100220005E34793471341B212B21362155213C2138
:1002300044215F21172903178316880189010313BD
:100240008316850187018801890106168617151610
:100250009517811308000F178F160F160F148112B0
:100260000112811101158114011408008B178B16DE
:100270008B15161696170800A008031940210800D0
:10028000A10A3230A00008000A302102031C4A29CA
:10029000A101A20A063022020318A201851F5229D9
:1002A0000F308500051A85010800031383124021D1
:1002B000A101850187018801890103010800210846
:0C02C000002188002208002187000800AF
:04400E00D420FF3F7C
:00000001FF
